{
    "requestId": "226a7800-983f-4254-9a8b-283bfe3a308c",
    "gatewayFee": {
        "amount": "0",
        "unit": "QNT"
    },
    "dltFee": {
        "amount": "0.0000031",
        "unit": "BTC"
    },
    "nativeData": {
        "data": "OVL Transaction Message",
        "inputs": [
            {
                "hash": "44cd204dc925518131e94440ee3a6c118a7d0e753a69a35cbd5e95e5012f2e01",
                "index": 0,
                "rawTransaction": "02000000000101b14e0e438aacaaad99704cce7ec28d17aacbd0fe119b1ef4edb5a7dad7345d920000000000feffffff0210270000000000001600145b939421b3e7812c5d6f55e67f1c6b0832f064a8326f855100000000160014aadbae97785505ae1aabd247f60ddfa046e943690247304402200a80aad0074ba21901110f77e09a690c6235a2e7f3b134fef780e4775aa7e10c02201acba9bb3c8b3f9ecc3686609ef5c8100538fd2d4f01f409337806d67cf05fb9012102cac05f3f5ae8139f7ea26ba3ac40eed3ff6ac365e173c21491f28458652dbec481e82100",
                "scriptPubKey": "00145b939421b3e7812c5d6f55e67f1c6b0832f064a8",
                "value": 10000
            }
        ],
        "outputs": [
            {
                "address": "mqwps6wRa6iUUZ7uqQt8maZ6xsUkdLTEaA",
                "value": 1000
            },
            {
                "address": "tb1qtwfeggdnu7qjcht02hn878rtpqe0qe9glsnhsu",
                "value": 8690
            }
        ],
        "fee": "0.0000031"
    }
}